:020000040C00EE
:100000000088FE1F010200089902000899020008FA
:1000100099020008990200089902000800000000F7
:10002000000000000000000000000000990200082D
:1000300099020008000000009902000899020008D7
:100040009902000899020008990200089902000824
:100050009902000899020008990200089902000814
:1000600099020008000000000000000000000000ED
:100070009902000800000000990200089902000897
:10008000AD1E0008990200089902000899020008B4
:1000900099020008990200089902000899020008D4
:1000A00099020008990200089902000899020008C4
:1000B00099020008990200089902000899020008B4
:1000C00099020008990200089902000899020008A4
:1000D0009902000899020008990200089902000894
:1000E0009902000899020008990200089902000884
:1000F0009902000899020008990200089902000874
:100100009902000899020008990200089902000863
:100110009902000899020008990200089902000853
:10012000CD1E0008990200089902000899020008F3
:100130009902000899020008990200089902000833
:100140009902000899020008990200089902000823
:100150009902000899020008990200089902000813
:10016000000000000000000000000000000000008F
:1001700099020008990200089902000899020008F3
:1001800099020008990200089902000899020008E3
:1001900099020008990200089902000899020008D3
:1001A0009902000899020008991400088D140008AB
:1001B00099020008990200089902000899020008B3
:1001C00099020008990200089902000899020008A3
:1001D0009902000899020008990200080000000036
:1001E0009902000899020008990200089902000883
:1001F00099020008000000009902000800000000B9
:10020000DFF874D01D4880471D4C1E4DAC4209DA02
:1002100021686268A368043BA2BFC858D050FAE7BF
:100220000C34F3E7184B194CA34208DA19685A68E2
:100230000020043AA4BF8850FBE70833F4E71448D1
:100240008047144880470000B026000C0088FE1F3D
:1002500030010000B026000C0088FE1F00000000E6
:100260003089FE1F74000000000000200000000024
:1002700000000020000000000088FE1F2503000889
:1002800048020008600200086002000878020008C6
:1002900099240008F51B0008FEE700001D4BDB68F1
:1002A000D90310B525D51C4BDA6812F0010F1C4696
:1002B00002D101F013FB00E018482268164B5207E8
:1002C00010D59A6899689B68C2F30362C3F3064429
:1002D000531C04FB0333B0FBF3F0C1F3062303FB11
:1002E000000007E09B6803F07F030133B0FBF3F0ED
:1002F00000E00A48074AD368DBB20133B0FBF3F0F1
:10030000136903F001030133B0FBF3F0044B1860F1
:1003100010BD00BF004600501047005000366E016F
:10032000C0FF032038B5094A094D4FF00054234659
:1003300003CBAB42106051601C4602F10802F6D1BB
:1003400001F08CFA01F0CEFA38BD00BFC4FF0320E3
:100350001000002001F0FC030344F0B501F0030499
:100360001E69E400F825A54026EA05051D61466FD3
:100370004F000325BD4026EA05054567164DA842F6
:1003800003D005F58075A84207D1056E012606FA4F
:1003900001F125EA0101016618E092F90050002DF3
:1003A00014DA55688D404560CD0800EB850001F0FA
:1003B0000701066C890007258D4026EA05050564BE
:1003C000167A056C06FA01F129430164127819695D
:1003D000A2400A431A61F0BD008E0248184B5B68C8
:1003E000DB0710B5044629D400F080F908B900F005
:1003F00063F9208A00F062FB124BD3F8C42012F498
:10040000006F1A46F8D103F5206321681962D2F80B
:10041000C410C804FBD462685A620A4BD3F8C420E3
:1004200012F4007F1A46F8D103F52063A1689961A0
:10043000D2F8C4104905FBD4E268DA61002010BD8F
:10044000004A005000400050044BD3F8C4305B0415
:10045000FAD4034A136918431061704700400050F2
:10046000004A005010B50446FFF718FF064B074836
:100470001B68B3FBF0F303FB04F00023834202D0BC
:1004800000BF0133FAE710BDC0FF032040420F0058
:10049000020F0C235343024A20F0704098507047DB
:1004A0001444005020F070420C23000F584303F115
:1004B000A04303F58843C3581A4214BF012000200B
:1004C00070470000034B044A5B69106803F00103A6
:1004D000D840704700460050C0FF0320034AD3684D
:1004E00023F480331843D060704700BF00460050AB
:1004F000034A936923F4803318439061704700BF27
:1005000000460050034A536A23F4403318435062B4
:10051000704700BF00460050064AD36820B923F454
:10052000807323F0010303E043F4807343F001037D
:10053000D360704710470050054BD3F8C4301B07F9
:10054000FAD4044AD36823F040031843D0607047BC
:100550000040005000430050054BD3F8C4301B0747
:10056000FAD4044AD36823F080031843D06070475C
:100570000040005000430050034AD368013823F084
:10058000FF030343D360704700460050034A136AD9
:10059000013823F001030343136270470046005003
:1005A000034A1369013823F00103034313617047C1
:1005B00000460050034A5369013823F00103034306
:1005C0005361704700460050034A9369013823F095
:1005D000070303439361704700460050034AD36901
:1005E000013823F03F030343D361704700460050B6
:1005F000034A536A013823F0FF03034353627047F1
:1006000000460050014B5860704700BF0046005044
:10061000020F0C235343024A20F070409850704759
:100620004846005020F070420C23000F5843034B03
:10063000C3581A4214BF01200020704740460050A2
:100640000F4B5A6942F001025A615A690138013967
:10065000000642F0100240EA01215A6159615A69CC
:1006600042F040025A615A6922F010025A615A69F6
:1006700042F480225A611A695207FCD5704700BFC4
:100680001047005010B50B4C6368012843F48013E9
:1006900063600AD1636823F4801363606420FFF70A
:1006A000E1FE636843F4002363606420BDE810400A
:1006B000FFF7D8BE104700500A4B1A68D20704D57E
:1006C000094B1A68900506D4704701225A601A68CF
:1006D000D107FCD5F4E74FF400729A601A689205CE
:1006E000FCD470470042005000440050054B18688D
:1006F00010F001001EBFD3F8000280F40070C0F3B8
:100700004020704700420050034B186880F00800FA
:10071000C0F3C000704700BF00430050104B4FF4BF
:100720000002DA600F4AD16921F03001D1615968C5
:100730000802FCD50A494FF40030C8600821516016
:100740005A689103FCD5064A4FF40021D16005494F
:10075000CA6842F00802CA605A681203FCD57047A2
:10076000744000500043005070B50C4D0C4E6B6847
:1007700023F480336B60746801F0B0F8094BB0FB70
:10078000F3F024F47023013823F0300343EA0043EC
:1007900073606B6823F400336B6070BD10470050CA
:1007A00000470050A0252600044B186800F4607034
:1007B000A0F5607358425841704700BF1047005081
:1007C000034A536823F4803323F0020353607047D5
:1007D00010470050034A536843F4803343F0020348
:1007E0005360704710470050054A9368013823F45E
:1007F000FE0343EA004393603220FFF733BE00BF9D
:10080000104700502DE9F0410C46054690461F4622
:10081000069EFFF781FE012C314C52D135B901F013
:100820005DF8304DB0FBF5F0800501E04FF0C060A1
:10083000636843F001036360636843F0100363601F
:10084000A168294B08F1FF320B4043EA02637A1E8C
:1008500043EA022278431823B0FBF8F5B5FBF3F323
:100860009B0D013B42EA0343A360636843F04003EE
:100870006360636823F010036360636843F480235C
:1008800063602368164A5907FBD5536823F00103B8
:1008900053602368DA07FCD43C20B5FBF0F0800DF0
:1008A000864201D2FFF7A0FF5A20B5FBF0F0800D81
:1008B000864201D2FFF798FF3046BDE8F041FFF7CE
:1008C00093BFA368013E23F07F031E43A6606368C5
:1008D00043F0010363602368DB07FCD5BDE8F081CA
:1008E0001047005040420F00FF8080F037B50446AB
:1008F0000020FFF7F3FDFFF7DFFEE3791BB9607A15
:10090000FFF72AFE06E0FFF709FFFFF7FDFE0028CC
:10091000FBD0F4E71B4BD3F8C430002BFAD1207A7C
:10092000FFF7B0FE207CFFF727FE607CFFF738FE64
:10093000A07CFFF72BFEE07CFFF73CFEA37923B9F8
:10094000E3784BB9FFF746FF10E0FFF70DFFFFF725
:100950002BFF0028FBD0F3E7FFF732FFA578A08834
:10096000E178627823780095FFF74CFFE068B0F5F6
:10097000803F01D1FFF7B2FD03B0BDE83040FFF783
:100980008DBC00BF0040005010B504461020FFF79A
:1009900039FE124B9C4204D10420FFF739FE04209B
:1009A00016E00F4B9C4204D10820FFF731FE0820CF
:1009B0000EE00C4B9C4204D11020FFF729FE1020C2
:1009C00006E0094B9C4207D10848FFF721FE074883
:1009D000BDE81040FFF75CBD10BD00BF00C0004087
:1009E00000000140004001400040004801000010AC
:1009F00038B504460D46FFF7C7FF4FF48073E36038
:100A0000236823F4404343EA8531216038BD0B68F5
:100A100043614B79C3F340131B0543600B7903F02B
:100A20000F0343624B7903F00F0303624B79C3F367
:100A3000001383610B791B09C3627047836A23F437
:100A4000706343EA0123836241627047092930B52C
:100A50009CBF094C094DD0F8A83099BF645C35F8AB
:100A600011104FF440510C2423EA0103A2401A4311
:100A7000C0F8A82030BD00BFE4240008EE24000820
:100A8000436F490010B503248C4023EA04034367F5
:100A9000436F8A401343436710BD0000054BD3F8F2
:100AA000C430DB05FAD4044A536843F001035360B1
:100AB000704700BF00400050004A0050054BD3F87B
:100AC000C430DB05FAD4044A53689BB243EA0040C1
:100AD0005060704700400050004A0050084BD3F867
:100AE000C42012F4006F1A46F8D103F520630168A0
:100AF0001962D2F8C410C904FBD442685A62704724
:100B000000400050024B1A6A02605B6A4360704703
:100B1000004A005070B50E46044600F085F9357A5B
:100B200033793168002D08BF102520462A4613B1BD
:100B300000F094F801E000F053F8F379013B5B001A
:100B400043F440336D0843F00103013543EA0523C4
:100B5000E3637379013B1B0643F481736363B379E9
:100B6000626B03B97379013B42EA034363634FF459
:100B7000A063A3634FF0FF33E3647389236470BD04
:100B8000D0F8083113F0E06F08D1836B1B06FCD45A
:100B90004FF40053C364C0F880107047C0F8801150
:100BA0007047D0F80C3113F0E06F0CBF406DD0F8F7
:100BB0001C0180B27047000008B50848FFF728FD07
:100BC0000648FFF72FFD0028FAD10448FFF760FC24
:100BD0000248FFF767FC0028FAD108BD800000102A
:100BE00063292DE9F04105460C46164630D97AB303
:100BF000FFF768FC642140F2FF3CB0FBF1FEB4FB60
:100C0000F1F401217443CEEB8E270A466046B7FB10
:100C1000F4F34FEA9328B8F5806F06D2C3F30903C3
:100C200063453EBF9C46414602460138CEEB07076E
:100C3000EDD142F400422A616A69074B013E13403C
:100C400043EA8623013943EA01436B61BDE8F08141
:100C50000120BDE8F08100BFEF8000FC2DE9F041EC
:100C60000F4690460546FFF72DFC08FB07F2904221
:100C700037DD90FBF2F35100012640F2FE34A3422F
:100C800004D990FBF1F301361144F6E75A1C08FB36
:100C900006F406FB03F15443B0FBF4F43C1B002CB8
:100CA00008FB01F1B0FBF1F0A7EB0007B8BF64420D
:100CB000002FB8BF7F42BC42B8BF1346C3F5806364
:100CC00043F480432B616A69074B08F1FF381340F6
:100CD00043EA8823013E43EA06436B610020BDE8F6
:100CE000F0810120BDE8F081EF8000FC30B5D0F844
:100CF000084124F0E064C0F80841D0F80851054CE0
:100D00002C40214341EA026242EA0323C0F8083141
:100D100030BD00BFC0C0FFF830B5D0F80C4124F0A2
:100D2000E064C0F80C41D0F80C51064C2C4044F063
:100D30008054214341EA026242EA0323C0F80C31A5
:100D400030BD00BFC0C0FFEFD0F80C3123F0E0632E
:100D5000C0F80C31D0F80C31090641EA022223F424
:100D60007C531343C0F80C31704710B507238469D6
:100D70008B4024EA03038A401A43826110BD10B5F8
:100D80000723D0F808418B4024EA03038A401A4322
:100D9000C0F8082110BD10B50723D0F80C418B40D6
:100DA00024EA03038A401A43C0F80C2110BD000056
:100DB00008B5194B984214D14FF40060FFF728FC96
:100DC0004FF40060FFF72EFC0028F9D14FF40060CB
:100DD000FFF75EFB4FF40060FFF764FB0028F9D1DA
:100DE00008BD0E4B984203D1BDE80840FFF7E4BEB2
:100DF0000B4B98420FD10B48FFF70AFC0948FFF74D
:100E000011FC0028FAD10748FFF742FB0548FFF71D
:100E100049FB0028FAD108BD080003400800024839
:100E20000840024800010010144B984210B50446D7
:100E300003D003F50073984201D1114811E0114B22
:100E4000984203D003F50073984202D1FFF7B4FE35
:100E500009E00D4B984203D003F50073984202D18C
:100E60000A48FFF7A5FF0323E360E368DB07FCD52F
:100E7000236C23F00F03236410BD00BF0000034068
:100E800008000340000002480040024808400248B1
:100E900008B50120FFF7BCFB0120BDE80840FFF7C3
:100EA000F7BA38B50D460446FFF7F2FF6B692360C9
:100EB0006B6843F40043C4F88030AB68C4F8A030DA
:100EC000EB68C4F8A4302B69C4F880322B68C4F8EE
:100ED000B83038BD283312B940F21F7200E0024A20
:100EE0000A4040F82320704700001F07D0F88030E8
:100EF00043F00043C0F880300023094A52F8232011
:100F0000D2F8801011F4403F05D0D2F88010C9000B
:100F100001D500BFF9E70133042BEED1704700BFC4
:100F200004250008D0F8403123F00F03C0F8403109
:100F30000329D0F8403188BF04391943C0F8401163
:100F40007047F0B542B901F01F051F26C1F3022119
:100F50004FF4E06E082709E0C1F304454FF4F8169A
:100F6000C1F302614FF0E06E1022182700EB8303FB
:100F7000B940D3F8A04024EA0E04214321EA060137
:100F800095402943C3F8A010F0BDF8B500220C46E7
:100F9000054613464968FFF7D4FF284661680122D9
:100FA0000023FFF7CEFF2846A16800220123FFF7A8
:100FB000C8FF012213462846A168FFF7C2FF236934
:100FC000E178C5F88030E368C5F8B830C1F30012A5
:100FD000C1F38103C1F34017C1F380106188C1F3ED
:100FE0000906217801F0070141EA0641C5F8F01130
:100FF000D5F8F01141F0004141EA027242EA836201
:1010000042EA477343EA8073C5F8F031F8BDD0F87F
:10101000803023F003031943C0F8801070470000AC
:10102000304AD2F8843023F08063F0B5C2F88430BF
:10103000D2F8843423F08063C2F88434D2F8843840
:1010400023F08063C2F88438D2F8843C23F08063B4
:10105000C2F8843C0B7813F00305C3F381030CBF83
:1010600000274FF400671A0200241F4B53F8246036
:10107000D6F8843023F44073134301343B43042CEB
:10108000C6F88430F1D14B68164A43F4000343F4A8
:101090000043C0F800328B6843F00103C0F804320B
:1010A000022D02BFD0F8043243F48033C0F804327A
:1010B000D2F8843043F08063C2F88430D2F88434AC
:1010C00043F08063C2F88434D2F8843843F08063FC
:1010D000C2F88438D2F8843C43F08063C2F8843C80
:1010E000F0BD00BF004400400425000830B50123D6
:1010F000D0F888508B4025EA0304137B8B402343B0
:10110000C0F8883092F90D30002B19DB012907D186
:10111000D0F8B03023F4F853C0F8B030082507E019
:1011200029B9D0F8B03023F01F03C0F8B030002543
:1011300092F90D30D0F8B040AB402343C0F8B03046
:10114000D0F8C84053682343C0F8C830D0F8D04026
:1011500093682343C0F8D0308031136840F82130C1
:1011600030BD70474368006893F82C3001229A40E4
:10117000914234BF01F1FF3202F1FF321946FFF70D
:10118000E3BD43685B68184770B54468836894F8AA
:1011900029502DBB1D7E05F0FF061DBB21B31AB3E0
:1011A0009A6001221A7694F82B201960DE60036899
:1011B00052B14FF40042C3F81821D3F8082142F08D
:1011C0008042C3F8082103E01A6C42F400521A640A
:1011D00094F82D104FF480328A409A66002070BD3A
:1011E000042070BD022070BD032070BD436893F8D9
:1011F00029300BB9FFF7C8BF04207047F8B5456820
:10120000836895F82A60044626BB5F7E07F0FF06D8
:1012100017BB19B312B3596001211A6159765E6187
:1012200095F82C3005687BB14FF48043C5F8183130
:101230001146FFF797FF2268D2F80C3143F0C04304
:10124000C2F80C313046F8BD2A6C42F440422A64A0
:101250001846F8BD0420F8BD0220F8BD0320F8BDF3
:10126000436893F82A300BB9FFF7C8BF04207047D2
:1012700070B58468E368A268934205461ED242684E
:1012800092F82B208AB12868D0F81431DE040BD4F0
:10129000E368A268934230D22268D15CFFF770FC09
:1012A000E3680133E360EEE770BD22680068D15C5B
:1012B000FFF766FCE3680133E36070BD0368D3F8B1
:1012C0001421110519D5416891F82B2032B1D3F8BA
:1012D000082122F08042C3F8082103E01A6C22F4AE
:1012E00000521A649A6B1206FCD400232376236002
:1012F0008B6813B1BDE87040184770BD436893F820
:101300002C302DE9F0410546846853B32868D0F8A5
:1013100014311B071BD4666923699E4206D2676895
:10132000FFF73FFCB8556369013363616269236964
:101330009A42EBD100232A686376D2F80C3123F06D
:10134000C043C2F80C316B68DB6803B1984763692E
:1013500021698B4222D22846C91ABDE8F041FFF725
:1013600001BF666923699E4207D200686768FFF77C
:1013700018FCB855636901336361626923699A4255
:101380000CD100232A686376136C23F44043136462
:101390006B68DB6813B1BDE8F0411847BDE8F08128
:1013A00000F00700C0F10702062A28BF062200B19C
:1013B000013801239340013B03FA00F0704700001D
:1013C00038B52B4D2B4C2C4A28460421FEF7C2FF82
:1013D00020462A49FFF79EFBE36923F00703E361F8
:1013E0002046102104220123FFF780FC0021204623
:1013F0000B460422FFF790FC236C214A23F00F03D5
:1014000043F00203236428460521FEF7A3FF20468C
:1014100010210222FFF7A9FC204610210122FFF72C
:10142000AEFC184D204610210022FFF7B4FC2046E8
:1014300013210022FFF7AFFCE868134CC0F3022031
:10144000FFF7AEFF8000C0B284F85B034FF000638B
:10145000A360E868C0F30220FFF7A2FF8000C0B2DB
:1014600084F85A034FF08063A360002038BD00BFAA
:1014700000800248000002482C25000820250008B2
:101480001425000800ED00E000E100E00148FFF74E
:10149000EFBE00BF0088FE1F0148FFF72FBF00BF4F
:1014A0000088FE1F90F8263033B190F821302BB918
:1014B00042690121D16001E001207047002070479E
:1014C00090F8213023B94369986800F00100704713
:1014D0000020704710B50446FFF7F2FF48B194F8BA
:1014E000263033B194F8210028B9636901221A61CA
:1014F00010BD012010BD002010BD4369428C5A630D
:101500000022DA630369C2689B681A6170470000B1
:10151000F8B505460E46FFF7D3FF90BBAB689E4279
:101520002FD36B689E422CD8C0F10F0223FA02F22F
:10153000964201D90130F7E795F821300BBB2B69B2
:101540001F68EB6900F00F041979E2B262F303013E
:101550001971A6FB070100F0C7FC0BA3D3E9002318
:1015600000F0CEFC80B2012888BF00F1FF30688413
:1015700021466869FFF762FA2846FFF7BEFF0020A0
:10158000F8BD0120F8BD00BF00E1F5050000000036
:1015900038B50446006900F011F92369217E9A6884
:1015A00001238B40D360E16905466069FFF72FFA9C
:1015B0002046FFF7A2FF94F8253063B194F820206D
:1015C00060690021FFF742FA6269D2F8A43043F063
:1015D0000103C2F8A430636994F8241002221A614E
:1015E000012284F8262001B1DA60284638BD90F83F
:1015F000262022B990F821300BB9FFF7C9BF00208F
:1016000070474268D378917810B5044698005378B3
:1016100040EA41001843137940EAC300537940EA95
:101620004310937950EA831002D0FEF70DFF01209A
:101630006368DC79012C04D14FF48070FEF704FF5D
:10164000204610BD037A10B5044673B90068FEF752
:10165000C5FE60B92046FFF7D4FF63681B78012BF5
:1016600001D1FFF71BFA01232372002010BD0120D6
:1016700010BD37B54279C388ADF806309DF8053006
:101680009DF8024002F00F0262F303038DF805306B
:101690008578C1789DF8033065F304048DF8024025
:1016A00045789DF8014065F305048DF80140057803
:1016B0009DF8004001F01F0165F3050461F3040388
:1016C0008DF8004004799DF80400DBB264F3020059
:1016D000DD068DF8040013D09DF8050004070FD037
:1016E000013961F304038DF80330013A034662F3D4
:1016F000030368468DF80530FFF7F0F9002000E09D
:10170000012003B030BD10B50446FFF7FBF9E378C4
:10171000C3F30402013262F30403E3706379C3F399
:101720000302013262F30303637110BD204BF0B575
:10173000D968057842788778C1F30221C1F1070E94
:10174000BEF1060F28BF4FF0060E01B1013901248A
:1017500004FA01F3013B04FA0EF403EA0706631EE0
:1017600013408B406AB2002A43EA06034FEA830320
:10177000AFBF02F1604205F00F050E4ADBB2A5BF14
:1017800002F56142DBB2535582F80033C37863B18E
:10179000027853B2002B08DB012102F01F0201FA8C
:1017A00002F25B09044941F823200020F0BD00BF8C
:1017B00000ED00E014ED00E000E100E0437B10B537
:1017C00004464BB98068217BFFF712F9A3684FF4F8
:1017D0008072DA6001236373002010BDF8B5037EC8
:1017E000022B044629D140692169FFF75AFB271FC4
:1017F000002657F8043F93E80300FFF7C6FB3B6859
:1018000003211868FFF703FC39680B7A4BB960694C
:1018100006F11005D0F880200123AB401343C0F837
:10182000803001360023042E4B721D46E1D1637EC9
:1018300013B16069FFF75AFB2576207EF8BD10B51D
:101840000446221D217C0068FEF784FD2068217C6F
:10185000627CFFF715F9002010BD0000194B1A4AF1
:10186000D96821F4E0610904090C0A43DA6072B610
:10187000164A9A60BFF34F8F62B6D3F88820144897
:1018800042F4700241F21401C3F88820425822F059
:101890000F0242F0040242505A6922F010025A61CB
:1018A0005A6922F008025A615A6A22F480325A6256
:1018B0005A6A22F400325A625A6A22F480225A6228
:1018C000704700BF00ED00E00001FA0500000008CD
:1018D0000010005801230370002070470048704733
:1018E000001BB70030B5114D0FCD87B001AC0FC450
:1018F0002B68236001A8FEF7F9FF0020FEF71CFE0D
:101900000020FEF7F5FD0420FEF75EFE20210120F9
:10191000FEF796FE0020FEF7F5FD0120FEF768FEBB
:101920000120FEF75BFE07B030BD00BF5026000867
:10193000437C70B5044693B9227C5D1CDBB29A42AD
:101940000BD9224652F8041B01EBC30651F83300B1
:101950003179FEF7FFFC2B46EEE70123637400208C
:1019600070BD036870B508330024027CE5B2AA425A
:101970000FD9012202FA05F513F8046C294208BFB9
:101980004FF4803253F8085CB2406A600134083387
:10199000EBE770BDF8B5037E022B044640F08A8069
:1019A000C068FFF71BFFE268A36805465069196825
:1019B00000221346FFF78EFAE36861685869FFF763
:1019C0002FFB23681E68B068717B3268FFF78EFBBF
:1019D000336871689B78B268096803F00F03A0331D
:1019E00042F82310E368327B5B69707B03EB820370
:1019F0000122D3F8801182400A43C3F88021636832
:101A00001B7A1B0748D52369002B45D02A4A1E683C
:101A1000D1685A689B68C1F30221C1F1070CBCF17F
:101A2000060FF7B228BF4FF0060C09B1481E00E0C0
:101A30000846012101FA00FE0EF1FF3E01FA0CF109
:101A40000EEA030E4B1E134083407AB2002A4EEA80
:101A500003034FEA8303ADBF02F16042174A06F069
:101A60000F0602F56142B9BFDBB29355DBB282F8D3
:101A70000033E368617E5869FFF754FA23691A68F6
:101A800053B2002B08DB012102F01F0201FA02F21F
:101A90005B090B4941F82320636903B19847A37E92
:101AA0003BB1E3685A69D2F8043243F40073C2F8D8
:101AB00004322576207EF8BD00ED00E014ED00E054
:101AC00000E100E0C3685A69D2F8043243F40073BD
:101AD000C2F804327047036882689B7803F00F03F2
:101AE000C03352F8230080B27047000008B51B488D
:101AF000FFF7F0FE80BB1A48FFF743FB60BB1948B5
:101B0000FFF7A0FD40BB1848FFF799FE20BB174820
:101B1000FFF70EFF00BB1648FFF73CFFE0B9154882
:101B2000FFF765FDC0B91448FFF700FEA0B91348E0
:101B3000FFF785FE80B91248FFF781FE60B91148B2
:101B4000FFF77DFE40B91048FFF751FD20B90F485F
:101B5000BDE80840FFF7EABD08BD00BF4C89FE1F85
:101B60000088FE1F6C88FE1F00260008D488FE1F18
:101B7000E888FE1F1488FE1F902500083C260008F8
:101B800014260008282600084488FE1F9425000813
:101B900010B583784278164C03F01F0302F03F0221
:101BA000C3EB031302EB830322786178A078C2EBC6
:101BB000021201EB8202E178C0EB001001EB800021
:101BC00012B200B282429BB205DA9A1A002A0ADDEA
:101BD000181AC00F10BD1BB2934206DC8342ACBF83
:101BE0000020012010BD002010BD012010BD00BF4D
:101BF0002C89FE1F2DE9F347FFF778FF012800D15C
:101C0000FEE740494048414E0122FFF729FB404B87
:101C100040481D7C1C683378012101FA05F9994080
:101C2000C943C4F8049089B2FFF79BFE4FF4803794
:101C3000AF404FF0000804256846FFF764FD337895
:101C40009D4216D0032B04D0042B03D1C4F804907A
:101C500000E06760012D02D12F48FFF73BFC33788D
:101C60002C4801219940C94389B2FFF77AFE4FF011
:101C700000083578012D08D002D3022D23D03FE093
:101C80006846FFF785FFD8B118E0B8F1000F03D020
:101C9000B8F1010F08D033E01F48FFF703FC1F48DD
:101CA000FFF710FFA8462BE06846FFF771FF38B139
:101CB0001B4B1A781B4B1B789A4201D267601FE0BE
:101CC000C4F804901CE0184ADFF864A01368127C82
:101CD0005B6AD34013F001050AD067601348FFF731
:101CE000F9FB9AF81030DAF8002005FA03F306E061
:101CF0009AF81010DAF800204FF480338B405360CC
:101D0000357899E76489FE1F0088FE1F2B89FE1F26
:101D100000260008D488FE1F1488FE1FE888FE1FD6
:101D20005889FE1F5589FE1F142600084488FE1F8F
:101D300028260008024803490122FFF791BA00BF94
:101D40000088FE1F6489FE1F70B54B4E34783546FF
:101D5000002C3BD149490B7833706D2B06D86C2B86
:101D600009D2612B07D0672B29D01EE0702B04D03D
:101D7000742B22D019E0012222E0414B41481B780C
:101D80000B70414B1A784A705A788A709A78DB78CF
:101D90000B713E4BCA701B784B713D4B07221B7871
:101DA0008B71FFF723FA347070BD36483949012230
:101DB000FFF71CFA00232B7070BD042200E00722FD
:101DC00030483549BDE87040FFF74ABA6C2C36D030
:101DD00026D8612C37D0672C44D13048274B027865
:101DE000597861F3050202709978427861F305022F
:101DF0004270D978827861F3040282701979C278CE
:101E000061F30402C2705979427961F303024271AD
:101E10009A79DB7943EA0223C380FFF72AFC21E0A9
:101E20006D2C1BD0742C1DD1144A174B517819708E
:101E300091785970D17812799970DA7012E00F4B5D
:101E40005A78124B0DE00D4B15485978104B19700C
:101E5000144B03395943FFF75BFB03E0074B5A78F8
:101E6000074B1A7000232B7006480F490122BDE86A
:101E70007040FFF7BBB900BF5489FE1F6489FE1F85
:101E80002B89FE1F0088FE1F2C89FE1F5589FE1F0F
:101E90002989FE1F2A89FE1F6589FE1F5C89FE1F96
:101EA0004488FE1F40420F002889FE1F08B50548E0
:101EB000FFF711FE64235843A32390FBF3F0024B7A
:101EC000187008BD0489FE1F5889FE1F044B054881
:101ED000197C1A684FF001138B405360FFF7F2BD75
:101EE0003C260008E888FE1FD0400B1CD1409C46D1
:101EF000203AD340184352426346934018437047F8
:101F00004BB942B9002908BF002802D04FF0FF3179
:101F1000084600F03BB882B0EC462DE9005000F0D6
:101F20001DF8DDF804E002B00CBC70472DE9F0416B
:101F3000069C154606460F46984600F029F805FB14
:101F400001F300FB0838A5FB0023B21A434467EBFA
:101F50000303C4E90023BDE8F08100BF2DE9F0418F
:101F6000069C904606460F461D4600F05FF900FBB2
:101F700005F5A0FB082308FB0155B21A2B4467EBBB
:101F80000303C4E90023BDE8F08100BF704700BF30
:101F900000292DE9F043C0F2A6800026002BC0F2F4
:101FA0009C80884694469E46154604460F46002B64
:101FB0003DD18A4259D9B2FA82F33BB1C3F1200232
:101FC0009F4020FA02F29D4017439C40290C220CAE
:101FD000B7FBF1FEA8B201FB1E7742EA074700FB00
:101FE0000EF3BB420AD97F190EF1FF3280F0058152
:101FF000BB4240F20281AEF1020E2F44FF1AA4B29E
:10200000B7FBF1F301FB137744EA074700FB03F04A
:10201000B84208D97F1903F1FF3280F0F080B8424E
:1020200040F2ED80023B43EA0E43002203E08B4284
:102030000FD900221346341C18BF012460424FF010
:10204000000565EB45015840514000196941BDE864
:10205000F083B3FA83F2002A40F086808B4202D3E9
:10206000844500F2DB800123E5E712B90123B3FBCD
:10207000F2F5B5FA85F000283BD1781B4FEA154EF2
:102080001FFA85FC0122B0FBFEF8210C0EFB18079D
:1020900041EA07470CFB08F3BB4207D97F1908F157
:1020A000FF3102D2BB4200F2BD808846FF1AA4B2C3
:1020B000B7FBFEF30EFB137744EA07470CFB03FC68
:1020C000BC4507D97F1903F1FF3102D2BC4500F2AC
:1020D000A7800B4643EA0843ADE752426FEA060683
:1020E00063EB43035DE7404261EB41014FF0FF3694
:1020F00054E7C0F1200224FA02F107FA00F3854008
:102100004FEA154ED7401943B7FBFEF20B0C0EFBFE
:1021100012771FFA85FC43EA07430CFB02F79F4244
:1021200004FA00F407D95B1902F1FF3074D29F4220
:1021300072D9023A2B44DF1B89B2B7FBFEF80EFBC3
:10214000187341EA03430CFB08F79F4208D95B1957
:1021500008F1FF315CD29F425AD9A8F102082B4402
:10216000D81B48EA02428EE7C2F120032CFA03F1A1
:102170000EFA02FE20FA03F741EA0E0E08FA02F008
:1021800028FA03F14FEA1E453843B1FBF5F8030C7A
:1021900005FB18111FFA8EF743EA014107FB08F30C
:1021A0008B420CFA02FC09D911EB0E0108F1FF3940
:1021B00030D28B422ED9A8F102087144C91A80B2DC
:1021C000B1FBF5F305FB131140EA014107FB03F7EF
:1021D0008F4208D911EB0E0103F1FF3016D28F4266
:1021E00014D9023B714443EA0843C91BA3FB0C8981
:1021F000494509D305D000221DE79646FEE6134661
:1022000011E794404445F6D2013BF4E70346EAE780
:102210008846A5E7C846D1E702468CE713460AE799
:10222000023B57E7A8F102082F443FE72DE9F041B0
:10223000002B44D18A42154604464FD9B2FA82F7A0
:102240000E464FB1C7F12003B94020FA03F602FA57
:1022500007F50E4300FA07F44FEA154E230CB6FBC0
:10226000FEF0AFB20EFB106143EA014307FB00F141
:10227000994209D95B1900F1FF3280F0EC80994254
:1022800040F2E98002382B445A1AA4B2B2FBFEF3A2
:102290000EFB132244EA024207FB03F7974208D9D8
:1022A000521903F1FF3180F0D880974240F2D58077
:1022B000023B43EA004000263146BDE8F0818B42F4
:1022C00047D8B3FA83F6002E48D18B4202D382421C
:1022D00000F2CD8001203146BDE8F08112B9012520
:1022E000B5FBF2F5B5FA85F8B8F1000F77D14A1BC6
:1022F0004FEA154EAFB20126B2FBFEF0230C0EFBE7
:10230000102143EA014107FB00F38B4207D9491929
:1023100000F1FF3202D28B4200F2BA801046C91A95
:10232000A4B2B1FBFEF30EFB131144EA014407FB18
:1023300003F7A74208D9641903F1FF3280F08F80B8
:10234000A74240F28C80023B43EA00403146BDE8A0
:10235000F081002630463146BDE8F081C6F1200408
:1023600022FA04F5B3402B4320FA04FC01FA06F7E5
:1023700021FA04F54FEA134E4CEA0707B5FBFEF8C5
:10238000390C0EFB18551FFA83FC41EA05450CFB7E
:1023900008F1A94202FA06F204D9ED1808F1FF3457
:1023A00067D3A0466D1ABFB2B5FBFEF40EFB145501
:1023B00047EA05410CFB04FC8C4504D9C91804F11B
:1023C000FF355CD32C4644EA0844CCEB0101A4FB66
:1023D0000223994248D344D0204600266CE7C8F136
:1023E000200401FA08F305FA08F520FA04F7E140A1
:1023F0004FEA154E1F43B1FBFEF63A0C0EFB1611C9
:102400001FFA85FC42EA01430CFB06F29A4200FAED
:1024100008F407D95B1906F1FF3137D29A4235D952
:10242000023E2B449B1ABFB2B3FBFEF00EFB1033EF
:1024300047EA03430CFB00F1994207D95B1900F10D
:10244000FF3221D299421FD902382B445A1A40EA4E
:102450000646674650E7104616E70B4629E713463F
:1024600072E7B0409042B7D2601E002624E73046A3
:1024700022E7A94295D9A8F102081D4492E78C45AC
:10248000A0D9023C19449EE71046DFE70E46C9E793
:102490000238294443E700BF70B50E4B0E4CE41AD6
:1024A000A41000251E46A54204D056F825309847B2
:1024B0000135F8E7FEF755FE084C094BE41AA41065
:1024C00000251E46A54204D056F825309847013510
:1024D000F8E770BD3089FE1F3089FE1F3089FE1F6E
:1024E0003089FE1F000002020C0C0C0C080A0300CD
:1024F00003000C000C0000300030003000300003FE
:10250000000C00000044004000480040004C004027
:102510000050004090000000010000000200000098
:1025200080250000000808011000000000000000E5
:10253000010000000200000020250008C11300086F
:10254000351D0008491D00080000000000000000C3
:1025500000000000000000000000000068250008E6
:102560000000000404010000008002480500000093
:102570001425000801000000000000000000000019
:102580000400B207000100000000B207FF7F000056
:10259000383F0001393F000100000000000000004A
:1025A000000000000000000000000000000000002B
:1025B000000000000000000000000000000000001B
:1025C000000000000000000000000000000000000B
:1025D00000000000000000000400000000000000F7
:1025E00000000000000000000000000000000000EB
:1025F00000000000000000000000000000000000DB
:10260000008002488000000001000000000000007F
:1026100003000000008002480000000000000000ED
:10262000000000000000000000850248800000005B
:1026300000000100000000000800000000850248C2
:102640008000000000000100000000000900000000
:102650003002010100000100000000000000010044
:1026600002010101008302480000000000830248CB
:1026700001000000008302480200000000800248C0
:1026800009000000008002480A000000100000005D
:102690003F000000000000000500000000000000F6
:0826A000080000000002000028
:0826A800E8F8FF7F01000000CB
:1026B00000000248382500083089FE1F0000000095
:1026C0000F00000000E1F5053435E3580A00000072
:1026D000000500007888FE1F00430048020000004B
:1026E0003C88FE1F0000538900010000000000002C
:1026F0000C00000000CA9A3B3435E3580A00000081
:10270000005000007888FE1F0044004803000000CD
:102710000C88FE1F0100A8AB010100007C25000809
:10272000742500080000000000449508080000001F
:1027300000400048000000000044004098250008C8
:10274000010200008888FE1FB088FE1FC888FE1F97
:10275000BC88FE1FD4250008004000400201000094
:1027600000480040AC250008010200000050004075
:10277000C025000801020000004C0040EC250008C4
:102780000102000064260008800000000100000033
:1027900000000000050000002489FE1F98260008A4
:1027A000A42600089488FE1F8C2600080000000064
:1027B000020600001489FE1F5089FE1F00440040DD
:1027C0000006000002002F000000000000000000D2
:1027D00000FF00000489FE1F410F450411000500A1
:0400000508000201EC
:00000001FF
